:020000041000EA
:1000000000B5324B212058609868022188439860DF
:10001000D860186158612E4B002199600221596106
:100020000121F02299502B49196001219960352056
:1000300000F044F80222904214D00621196600F024
:1000400034F8196E01211966002018661A6600F04E
:100050002CF8196E196E196E052000F02FF8012189
:100060000842F9D1002199601B49196000215960AB
:100070001A491B48016001219960EB211966A021F2
:10008000196600F012F800219960164914480160C1
:100090000121996001BC002800D000471248134993
:1000A000086003C880F30888084703B5996A0420EC
:1000B0000142FBD001200142F8D103BD02B5186610
:1000C0001866FFF7F2FF186E186E02BD00000240BE
:1000D000000000180000070000035F00212200005C
:1000E000F4000018222000A00001001008ED00E03C
:1000F00000000000000000000000000074B24E7A12
:1001000000200420F7010010C3010010C5010010F9
:10011000C1010010C1010010C1010010C101001097
:10012000C1010010C1010010C1010010C701001081
:10013000C1010010C1010010C9010010CB01001065
:10014000CD010010CD010010CD010010CD01001037
:10015000CD010010CD010010CD010010CD01001027
:10016000CD010010CD010010CD010010CD01001017
:10017000CD010010CD010010CD010010CD01001007
:10018000CD010010CD010010CD010010CD010010F7
:10019000CD010010CD010010CD010010CD010010E7
:1001A000CD010010CD010010CD010010CD010010D7
:1001B000CD010010CD010010CD010010CD010010C7
:1001C00000BE00BE00BE00BE00BE00BEEFF3058054
:1001D000103800BEF2EB8871E4F505100CF605103E
:1001E0003402001090A31AE700201F49086006C8D7
:1001F00081F3088810471D48006800282FD10DA4FE
:100200000ECC002902D000F012F8F9E71849194A7B
:10021000002000E001C19142FCD1174988471749ED
:1002200088471749884700BEFDE701C901C29A42C5
:10023000FBD370470CF60510C000002044230020BB
:1002400090180610000004200000042090180610EA
:10025000001004200010042000000000704709482E
:1002600002F084FF0047000008ED00E0000000D02D
:1002700048230020103D00202D1E00109503001083
:10028000EF1D00105756000006005250ABB36053EC
:1002900028BF041006005250861C030238BF041009
:1002A000060052505422A29D3CBF0410050052503B
:1002B000DE65F46890180610F8B5C0460648074990
:1002C000091A8B10C90FC91810B5491003D0044B77
:1002D000002B00D0984710BD442300204423002069
:1002E00000000000054B10B5002B03D00449054861
:1002F00000E000BFFFF7E2FF10BDC04600000000B5
:10030000E0390020B8B5041010B5040040F0A2FD9B
:100310000368236040F09EFD00230360200010BDB1
:1003200070B5040040F096FD0368002B01D020005A
:1003300070BD256840F08EFD0560F8E7F0B583B02C
:1003400006000F0014001D006846FFF7DDFF01A93D
:100350002000B047061C019BA34202D040F07AFD6A
:1003600007E038001BF0F8FA6846FFF7D9FF04F001
:10037000C5FB0368222B0AD0002D02D0019B1B1B5A
:100380002B606846FFF7CCFF301C03B0F0BD38008F
:100390001BF012FB10B5424CA54404F08DF99621D8
:1003A0008901404801F00AFB3F49082241A81BF09F
:1003B0005BF94CA805F0ECF9002816D03BAA3DAB40
:1003C0003B9300233C93137235AA37A9359136939A
:1003D000137290336A460532FF32D358002B3DD159
:1003E0003BA9100027F00CF90CE0083004F0D8FA13
:1003F00004002E490BF06EF92D4A2E49200005F01D
:1004000015F83CE018223BA901A826F037FC0EE0C5
:1004100000900022694608E0224B9B699B06FBD4B2
:100420000878204B186001320131032AF4D92C22BC
:1004300035A901A805F088FA03680C3B1B68C018B1
:10044000436905221A4206D1359A1B491B480023ED
:10045000FFF774FFDCE701A826F04CF835A826F07A
:10046000E1FD3BA826F0DEFD41A81BF07DF9002050
:1004700082239B009D4410BD200004F0A7FA41A8F0
:100480001BF072F904F03AFB01A826F033F835A806
:1004900026F0C8FD3BA826F0C5FDF0E7F7E7C0460B
:1004A000F8FDFFFF00400340B8B50410C8B50410C4
:1004B00099780010A8EB0410DCB5041045CD0310AA
:1004C00010B58300084A944663441A684024624089
:1004D000803414408022520113431C60C000034B3F
:1004E0009C466044416010BD04C001400040014092
:1004F000034B1B6802201840431E9841C0B270474E
:1005000000C00640EFF3108072B6034B1B68002B4F
:10051000FBD0BFF35F8F70472C0100D0BFF35F8F1C
:10052000024B00221A6080F3108870472C0100D023
:10053000F8B506000C001500FFF7E4FFE308F71814
:10054000F15C07222240012393400B4205D1DBB22C
:100550000B433B70FFF7E2FFF8BD2100280001F0DC
:10056000E1FC0000002307E0054A9A189200BFF35F
:100570005F8F0021116001331F2BF5D97047C046F2
:1005800040000034054A1078431CDBB21370172B6F
:1005900002D9130010221A707047C046F0110020D3
:1005A000074B9B68103080001950BFF35F8FBFF37B
:1005B0005F8F044B0021196082F310887047C0469A
:1005C00000ED00E0240100D010B50388DA0A1C2AEF
:1005D00005D15B055B1502335B00C01810BD034BF2
:1005E000034A0448B12101F005FCC046E4B50410FB
:1005F00008DB0410FCB5041010B5091A0B1F0A4AD9
:1006000088180A4A904208D8C90706D45B105B05CF
:100610005B0D0748184380B210BD064B064A0748D9
:10062000A32101F0E7FBC046FC070000FE0F00001D
:1006300000E0FFFF40B60410FCDA0410FCB5041023
:1006400010B5091A04394A08090B08D14905490DA2
:10065000064B0B430380064B1343438010BD054BF1
:10066000054A0648AB2101F0C5FBC04600F0FFFF7C
:1006700000F8FFFF70B60410D0DA0410FCB50410C7
:1006800001238340034A10681840431E9841C0B2BA
:100690007047C04600E100E0002904D0034B186019
:1006A000034B18607047034B1860FBE780E200E0E3
:1006B00000E100E080E100E010B501238340180074
:1006C000FFF7EAFF10BD0000024B9B68103080006E
:1006D000C058704700ED00E070B504000D00EFF366
:1006E000108672B60C4B1B68002BFBD0BFF35F8FDC
:1006F0002000FFF7E9FF094B984201D0A84205D13D
:10070000320029002000FFF74BFF70BD044B054A63
:100710000548862101F06EFB240100D0CD010010B8
:1007200080B6041018DB0410FCB50410F0B5CE46FA
:10073000474680B583B006000D00EFF3108872B60F
:100740004F4B1B68002BFBD0BFF35F8F4D4B9A685C
:1007500034001034A300D7584B4B9F4207D0AF4210
:1007600000D18BE00197494BFB1A2F2B09D9424648
:1007700039003000FFF714FF03B0C0BCB946B046E3
:10078000F0BD3000FFF77CFF814600213000FFF70D
:1007900093FFBFF35F8FEFF30581002901D08C42F7
:1007A00011D10123019C9C430020A368AB4212D0CD
:1007B0000622A256002A0DDB53009B189B00334AE9
:1007C0002000D418F1E7324B324A36213248FF314B
:1007D00001F010FB2000AB4249D106256557002DE2
:1007E0002BDB2A4B6A00521992009B189A68A26070
:1007F000DA79E2719B795BB2A371002B0FDA27489B
:10080000A080224B6A00521992009B18244A11784A
:100810009971157049463000FFF74EFFA7E7680051
:1008200040198000194BC0180430FFF7CDFE0100BD
:10083000231D1800FFF7E0FEE2E7002912D100288F
:100840000ED0FF238371174B838015490B78A3715A
:100850000E4A154BA41A644163431B0D0B70D9E774
:10086000094FF2E71149201DFFF7EAFED2E7104BCE
:10087000084A6A210848FF3101F0BCFA024F76E7C6
:10088000240100D000ED00E0CD010010F4110020A3
:10089000B8B60410E8DA0410FCB5041001BD00007D
:1008A0000E3D002001BDFFFFAAAA00002E1200206D
:1008B000ECB6041070B5012202432E4BD31A2F2B35
:1008C00028D8EFF30583002B2BD0EFF3108C72B6F2
:1008D000294909680029FBD0BFF35F8F254C2749C0
:1008E00005002D1B6D416943090D4CB224498968EF
:1008F0009B00C95891421BD00021032932D81D4BBF
:100900004A00521892009B189B795BB2A3421FD0F9
:100910000131F2E71B4B1C4AC7211C48490001F07A
:1009200069FA1B4B184A92211848FF3101F062FA0C
:10093000134A92681749D150174B1A7882711C706C
:10094000BFF35F8F0C4B00221A608CF3108870BDD0
:10095000084B4A005518AD005D19FF26AE710F4ACD
:10096000AA80E9E70E4B084AD1210848490001F066
:1009700041FAC046F4110020240100D0AAAA0000C8
:1009800000ED00E0F4B60410B4DA0410FCB5041075
:100990001CB70410CD0100100E3D002001BDFFFF6B
:1009A00028B704100022044B02E0044902C30132BC
:1009B000072AFAD97047C04600E400E080808080B2
:1009C000024B9C466144890001607047400000343E
:1009D00010B50400FFF7D6FD01002000FFF7F0FF7F
:1009E000FF232371BFF35F8F10BD10B50400FFF725
:1009F000C9FD01002000FFF7E3FFFF23237100235F
:100A00006371BFF35F8F10BD084B5B6A994209D8D1
:100A1000064A926A824207D2994201D0012002E03E
:100A2000002000E0002070470120FCE70040054066
:100A300010B500290AD003681B7B8B4206D380685F
:100A4000054B9C4661440901401810BD034B044A04
:100A500004483C2101F0CEF9FFFFFF0FC4B704109A
:100A600028DC0410E8B70410F8B504001700FFF7FD
:100A7000DFFF0668456839002000FFF7D9FF0268EC
:100A800043680120AB4201D802D00020C0B2F8BDBB
:100A9000B242FBD8F9E7000010B5002B02DB026080
:100AA000436010BD024B034A03483F2101F0A2F905
:100AB00028B80410F4DB041044B8041010B582B058
:100AC00004000498059912184B41002B09DB684675
:100AD000FFF7E2FF009A019B22606360200002B0F2
:100AE00010BD01225242014BF1E7C046FFFFFF7FDC
:100AF00010B5002908D0037B8B4205D300684B005A
:100B00005B18033BC01810BD024B034A0348682121
:100B100001F070F990B80410D0DB0410ACB80410E8
:100B200010B5437B8B4201D1012010BDFFF7E0FFE0
:100B30008378002B01D10020F7E70120F5E770B59D
:100B40000400857B002D01D1280070BD2900FFF72E
:100B5000CFFF4378A373002B00D1E373002383708E
:100B600043700370F0E70000F8B506000C001500B4
:100B7000FFF7BEFF0700002C0DD0002D11D0AC42B6
:100B800015D029003000FFF7B3FF84703B78002BAD
:100B900013D13D70F8BD0A4B0A4A0B486F2101F092
:100BA00029F90A4B074A0848702101F023F9084B3C
:100BB000044A0548712101F01DF943703D70E9E7D1
:100BC000FCB80410ACDB0410ACB8041008B9041075
:100BD00014B9041070B506000D001400002914D0DB
:100BE000002A14D0436880689847002806D0220065
:100BF00029003000FFF7B8FF280007E02A00210095
:100C00003000FFF7B1FF200000E0100070BD0800C9
:100C1000FCE7000070B504000D1E0CD0FFF768FF64
:100C20000023837043700370617B2A002000FFF76C
:100C3000D1FF607370BD034B034A0448A52101F046
:100C4000D9F8C0462CB90410C0DB0410ACB80410AD
:100C500070B504000D1E0FD0FFF762FF00280BD106
:100C6000E17B00290ED1A37B002B03D1E37B002B7A
:100C70000DD1A573E57370BD084B094A0948F621EB
:100C800001F0B8F82000FFF733FF4570EBE7064BA3
:100C9000034A0448FB2101F0ADF8C04630B9041006
:100CA0009CDB0410ACB8041054B9041010B5002932
:100CB00007D003681B7B8B4203D3C06801394018FF
:100CC00010BD034B034A0448412101F093F8C0468C
:100CD000C4B7041088DB0410E8B7041070B5050031
:100CE0000C00080000F046FC0949200000F086FBDB
:100CF000FFF748FC074B9C466044800068602C75F9
:100D0000D0231B061B786B75034BA400E55070BD08
:100D1000050E001040000034F83900200A4B1A6814
:100D2000EFF3108172B61368002BFCD0BFF35F8F16
:100D3000054B1B68BFF35F8F00221A6081F3108898
:100D400040BF002000217047F03C002010B582B069
:100D5000040000F015FB02000B006846FFF79CFE44
:100D6000009A019B22606360200002B010BD000069
:100D7000F0B583B0070001921D000AAB1C780BABE5
:100D80001E78002C0BD000682100FFF7C9FE002858
:100D900009D0194B194A1A48672101F02BF800684D
:100DA000FFF7CDFE0400002C02D1200003B0F0BDFF
:100DB00021003800FFF73CFE019B03604560089B63
:100DC0008360099BC36038682100FFF723FFA042BE
:100DD000EBD1387D019A2B0000F058FB051E01D0A5
:100DE000002E04D00C9B002BDFD01D70DDE738688F
:100DF000210000F005FDF5E768B90410DCDB041004
:100E0000E8B70410F0B5DE4657464E464546E0B515
:100E10008FB00B900021794B8200D458894683E033
:100E200029002000FFF704FE804602684368921BF9
:100E3000BB41002B09DD43461A685B680B9800F044
:100E400025FB0023984600268AE0002B01D1002ACA
:100E5000F1D10021584600F0C9FC0700A84215D185
:100E600043461A685B680892099343469E68DB68AC
:100E70009846002E10D029002000FFF717FF0378B6
:100E800099461B021F432761002069E05C4B5D4AC5
:100E90005D488E2100F0AEFF5C4B5A4A5A489221C1
:100EA00000F0A8FF2369002B00D177E0BB4219D1E5
:100EB00006980799002342428B4100920193089AB9
:100EC000099B0CA8FFF7FAFD0C9A0D9B00210491D9
:100ED0000131039102954146019100962000FFF7F0
:100EE00047FF16E04A4B474A4748A12100F082FFDE
:100EF000069A079B002B01D1002A52D120682900B5
:100F0000FFF7A6FE29002000FFF7D0FE037801338B
:100F10000370002323616268BFF35F8F13608AF35D
:100F200010880120002861D00CA8FFF70FFF0C9E4D
:100F30000D9F00220023089209936268EFF3108A44
:100F400072B61368002BFCD0BFF35F8F23689B46FB
:100F50005D7B002D00D063E700239846002600202B
:100F60006368BFF35F8F00221A608AF31088002E37
:100F7000D8D04B461F022F4341463800B047069059
:100F800007916268EFF3108A72B61368002BFCD0E9
:100F9000BFF35F8F079B002B00DA83E7079B002BD3
:100FA000A6DD2369002BA9D0BB4219D10CA8FFF7FD
:100FB000CDFE0C9A0D9B06980799009001910CA804
:100FC000FFF77CFD0C9A0D9B0021049101310391E8
:100FD00002954146019100962000FFF7C9FE98E76F
:100FE0000B4B084A0848A42100F004FF0FB0F0BCE6
:100FF000BB46B246A946A046F0BDC046F83900201F
:1010000090B904100CDC0410E8B70410A8B904105F
:10101000B4B9041010B50C4B5B68002B04D00B481E
:101020000A21FFF7CDFC10BD074C094A20682300B8
:10103000102100F046FB032000F096F90321200068
:10104000FFF74CFEEBE7C0463C120020F03C0020CE
:10105000690A001010B5064B5B68002B01D00448EC
:1010600010BD044B044A05485E2100F0C3FEC04693
:101070003C120020F0B9041070DB0410E8B7041033
:10108000F0B5DE4657464E464546E0B58DB0060003
:1010900090461F00169B9A46179B994618AB1B78E3
:1010A0000793272302AA9446634400221A7021E082
:1010B00001003000FFF7FAFD00783CE00698002BB5
:1010C0005CD0079B002B59D04946D04704000D0047
:1010D00003000B4359D0002940DB08A8FFF736FE78
:1010E000089A099B0094019508A8FFF7E7FC089B64
:1010F0009846099F7268EFF3108B72B613685942D5
:101100004B41D9B20691002BF8D1BFF35F8F273343
:1011100002AA9446634404930023039302934B462C
:1011200001935346009342463B003000FFF720FEF8
:101130000400051EBCD17368BFF35F8F00211960E6
:101140008BF31088002D17D0272302AA94466344FE
:101150001B78002BB2D100022043B0E7002362428B
:10116000AB410092019342463B0008A8FFF7A6FC62
:10117000089B9846099FBDE7012040420DB0F0BC96
:10118000BB46B246A946A046F0BD0698F6E7F0B5C4
:10119000C64600B584B00500884616001F000AAB9D
:1011A0001C78FFF757FF0294019700962A004346E8
:1011B000FFF766FF04B080BCB846F0BDF0B5C64688
:1011C00000B505000C1E42D04268EFF3108772B6DE
:1011D0001368002BFCD0BFF35F8FE6B22B689846F4
:1011E00031001800FFF79CFC00282AD02B69A3428D
:1011F00013D0240AE4B231002800FFF757FD03782A
:10120000A34211D000206B68BFF35F8F00221A60E9
:1012100087F3108880BCB846F0BD0E4B0E4A2C21D7
:101220000E48FF3100F0E6FD3100404600F0E8FADC
:101230000028E8D10A4B084A99210848490000F0E3
:10124000D9FD2B69A342DED100232B61DBE700200F
:10125000E0E7C04614BA041058DB0410E8B70410E5
:1012600038BA041010B50400FFF7F4FE2100FFF7B0
:10127000A5FF10BD30B583B005000C00EFF305836A
:10128000002B0FD10B4A00230093FFF780FF0028AB
:101290000BDD20BFFFF7E6FF28002100FFF7B4FBBE
:1012A00003B030BDFFF7B0FBFAE728002100FFF7DD
:1012B000ABFBF5E71D0D001010B5002B02DB026043
:1012C000436010BD024B034A03483F2100F092FDEA
:1012D00028B804105CDC041044B8041070B5EFF3B7
:1012E00005801038EFF3108C72B6194B1B68002B79
:1012F000FBD0BFF35F8F01221300834015494B637E
:1013000015490B60154909780C00C440224213D0DE
:10131000104A546A124A8500AA58944205D3114AC9
:10132000AA580E4C9943217007E00A4A031D9B00FE
:1013300099589950002200E00022BFF35F8F044BC0
:10134000002119608CF31088002A00D0904770BDEE
:10135000280100D0004005403C7005400F3D0020B2
:10136000F43C00206C38002010B50100024A034B09
:101370001800FFF7DDF810BD3CBA04100D3D002049
:10138000044B5B6A034A906A1900536A9942F9D187
:101390007047C04600400540084B5B6A01E0074BC0
:1013A0005B6A8B42FBD301E0044B5B6A8B4203D147
:1013B000024B9B6A8342F7D37047C046004005400A
:1013C000F0B583B004000D00FFF7DAFF06000F0050
:1013D00022002B0092197B41994202D804D19042FD
:1013E00002D901225242D3176846FFF765FF0098E1
:1013F0000199FFF7D1FF03B0F0BD000070B5040004
:101400000E00EFF3108572B61B4B1B68002BFBD050
:10141000BFF35F8F002E1CD02000FFF755F9174B4C
:1014200083420BD019002000FFF756F9012120005C
:10143000FFF742F90123A340114A1360114BA400A6
:10144000E650BFF35F8F0C4B00221A6085F31088C3
:1014500070BD0C4BA2000021D1500122A2400A49CC
:101460000B7893430B7005492000FFF75FF90021CB
:101470002000FFF721F9E4E7280100D0DD12001079
:10148000386005406C3800200F3D0020F0B5DE4686
:1014900000B584B00400150001921E000293FFF70E
:1014A0006FFF03958E4202D84ED185424CD9EFF39F
:1014B000108B72B6274B1B68002BFBD0BFF35F8FDE
:1014C000254A17780125A540EBB23B431370234B07
:1014D0005D63221D92000199D150214AA10002981A
:1014E00088501B6A2B4212D11C4B1B6C2B4208D01C
:1014F0000020BFF35F8F174B00221A608BF3108818
:1015000023E0184B184A1948C52100F073FCFFF777
:1015100037FF8E4214D802D1039B834210D80E4B62
:101520001B78BB420ED00D4B1D625D631F22224013
:10153000012393400E4A1360074B1F700120D8E728
:101540000020D6E70120D4E7012004B080BCBB46D0
:10155000F0BDC046280100D00F3D002000400540EE
:10156000F43C002060BA041040DC041084BA04107B
:1015700080E200E0EFF3108C72B60B4B1B68002B7F
:10158000FBD0BFF35F8F01238340084A13620849F1
:101590000A789A430A70BFF35F8F034B00221A60E8
:1015A0008CF310887047C046280100D000400540E9
:1015B0000F3D002010B5002908D0037B8B4205D3D6
:1015C00000684B005B18033BC01810BD024B034A78
:1015D0000348682100F00EFC90B80410B4DC04103D
:1015E000ACB80410F8B506000C001500FFF7E2FFD8
:1015F0000700002C0DD0002D11D0AC4215D02900D1
:101600003000FFF7D7FF84703B78002B13D13D707B
:10161000F8BD0A4B0A4A0B486F2100F0EBFB0A4B5E
:10162000074A0848702100F0E5FB084B044A0548CA
:10163000712100F0DFFB43703D70E9E7FCB8041056
:10164000A0DC0410ACB8041008B9041014B90410DC
:1016500070B506000D001400002914D0002A14D023
:10166000436880689847002806D02200290030008F
:10167000FFF7B8FF280007E02A0021003000FFF73D
:10168000B1FF200000E0100070BD0800FCE770B55D
:1016900005000023437301338373037BC373012469
:1016A00006E021002800FFF785FF0134E4B2447012
:1016B000297BA142F5D82800FFF77CFF0023437067
:1016C00070BD10B5017342608360FFF7E0FF10BD8D
:1016D000F0B5C64600B505000C1E03D1200080BC45
:1016E000B846F0BDFFF766FF4678002EF6D0310011
:1016F0002800FFF75FFF47780023984643702100DA
:101700002800FFF757FF43464370320021002800AE
:10171000FFF79EFF040039002800FFF7D9FF020001
:1017200021002800FFF794FF0400D7E7F0B5C64674
:1017300000B504000D001700002927D0FFF73AFF7D
:101740004378002B28D18378002B2BD101782000FF
:10175000FFF7BEFF06008046002F0AD0E17B00297C
:1017600026D1A37B002B03D1E37B002B25D1A573CE
:10177000E5734346002B26D129002000FFF71AFF0E
:1017800000234370300080BCB846F0BD114B124AB4
:101790001248382100F02EFB114B0F4A0F483A2116
:1017A00000F028FB0F4B0C4A0C483B2100F022FBB9
:1017B0002000FFF7FFFE4570D3E70B4B064A0748B2
:1017C000422100F017FB31002000FFF7F3FE002359
:1017D0008370D1E7CCBA04108CDC0410D4BA0410A6
:1017E00014BB04103CBB041054B9041070B50400C1
:1017F0000A00457B2900FFF799FF6073280070BD40
:1018000070B506000C1E40D0437B8B4207D0FFF71B
:10181000D1FE05008178002906D1002036E00121A3
:10182000FFF7E4FF012031E03000FFF7C3FE01784D
:10183000A1420DD03000FFF7BDFE4178A1420AD091
:101840000029F7D1124B134A13486B3100F0D2FA3A
:101850006B78037001E06B7843700023AB706B70A2
:10186000012221003000FFF761FF0200717B8142FD
:1018700005D03000FFF7ECFE7073012006E0074B47
:10188000044A0548712100F0B5FA002070BDC04639
:1018900028B7041074DC0410D4BA041060BB041020
:1018A00070B5046BE30701D4200070BD0200303234
:1018B000C0239B0113430A4A1A60456A836AAD013B
:1018C000ED18AD02062000F0BDF9064901F0A2FCBA
:1018D0000100280001F09EFC0021FFF771FDE3E705
:1018E000010300004E0E000070B504000E0015004C
:1018F000FFF7D6FF22002C32E36A5E40354080239A
:101900005B0113431D60206370BD000070B50500CE
:101910000C00062000F096F9C000210001F07AFCCE
:10192000C60908D00E4B9E4216D87F2303400133D0
:1019300034005E0800E001246C62AE6200220021E7
:101940002800FFF7D1FF062000F07CF98000A101FC
:10195000891901F05FFC70BD0026024CECE7C0461F
:10196000FEFF0000FFFF000010B505394901013AF4
:10197000D2001143002B09D002220A43012B07D0C9
:10198000002111436E22FFF7AFFF10BD0022F4E7E4
:101990000421F6E7002909D00A22064B9C46604440
:1019A00043425841044B4000C252704780225200CB
:1019B000F3E7C0460080FCBF043D002070B5050081
:1019C0000C00062000F03EF9061E27D0164B9D4263
:1019D00026D08022D203154B1A60154B1A60154B86
:1019E0009B6811009943FAD100212800FFF7D2FF2C
:1019F00021002800FFF78AFF0600002301220821AA
:101A00002800FFF7B1FF2A002C3280239B011343EB
:101A100010221A60084B2B630323AB64300070BDA7
:101A200080221204D7E7C0460080034000E0004057
:101A300000F0004000C0004001030000F8B5DE46A1
:101A400057464E464546E0B506000F0015000A9A77
:101A5000934250D31A0E92461B0298460A9A0023CC
:101A60004046514601F014FC81467400A419A400BC
:101A70002F4B9C4664446368834200D26060331FEE
:101A8000DBB29B46012B3CD9C0239B012343802220
:101A900012011A60274BB200D158002907D05869AB
:101AA00001F0B8FB013043001B18033BFDD26D0170
:101AB00023685D40E0222A4080235B0123431A60B3
:101AC0005A46012A28D980239B01234380221201F0
:101AD0001A604B4663604A4600234046514601F077
:101AE000D7FB144BB60098510120F0BCBB46B24660
:101AF000A946A046F8BD104B104A1148332100F00A
:101B000079F9012FC0D1C0239B01234303221A601E
:101B1000A368DB07FCD5CAE72168794003220A40A5
:101B20001A60A3680125BD401D42FAD0CBE7C0462C
:101B3000008000408438002080BB0410C0DC04100A
:101B400094BB041030B583B00C2000F011F9FEF7FF
:101B5000CFFC00280DD0002304E02E4A99002E4827
:101B600088500133092BF8D92A4B2C4A5A6203B00A
:101B700030BD2B4B00229A6700F002F9294B01225D
:101B80001A60274B5B6C012BFBD1274B03221A6099
:101B9000234B9B6B012BFBD1013300930433234A6E
:101BA0000121234800F054F805230093214A012124
:101BB000214800F04DF8214B00930022022104201F
:101BC000FFF73CFF1E4D00952B0000220121052050
:101BD000FFF734FF104C009423000022002107205F
:101BE000FFF72CFF00942300002200210820FFF7BC
:101BF00025FF0A4B00932300002200210920FFF754
:101C00001DFF00952B00002200210620FFF716FF84
:101C1000ADE7C04684380020006CDC021BB7000032
:101C2000008000403CB0004030B00040002F6859B8
:101C300000800240008C864700C00240001BB700B5
:101C400040597307014B8000C0587047843800200A
:101C5000F0B5C64600B504000E0017001D00374859
:101C600001F0D8FA8046364BFA18364B9A4239D8EA
:101C70000100380001F0CEFA0200103A98235B0010
:101C80009A4235D86B1E062B38D8069B013B062B93
:101C900034D83F09474537D32D04069B1B031D430A
:101CA0002368002B36DB284B9C4244D080235B0109
:101CB000264A1360264A1360264A92681900914307
:101CC000FAD12660A060221DC0239B01134321226C
:101CD0001A602268002AFCDAE56008221A6080BCDB
:101CE000B846F0BD1C4B1D4A1D48112100F082F87A
:101CF0001C4B1A4A1A48192100F07CF81A4B174A53
:101D000017481C2100F076F8184B144A1448232178
:101D100000F070F822683F231340B342C3D1A36898
:101D20001B051B0D8342BED1E368EE22D202134095
:101D3000AB42B8D1D3E780239B01B9E7001BB700C2
:101D400080E84BD380F8A93200C0024000E0004098
:101D500000F0004000C00040E0BB0410D0DC0410E4
:101D600040BC041084BC0410A0BC0410ECBC0410E3
:101D700080239B000343014AD362704700800540E3
:101D8000064BAA2212011A602F22DA60044B054A80
:101D90001A60024B5B68002BFBDA70470040024080
:101DA0000060024000B0FA0000BEFDE703000A4AEE
:101DB0001268002A08D0084A1068C318074A9A42D5
:101DC00006D3054A13607047034A05491160F2E7DC
:101DD00001204042F7E7C046F83800200000042008
:101DE000103D00200020704701204042704710B590
:101DF000FFF7DAFF30B583B00D001900002A0BD0D1
:101E0000074B084C019200932B000200200002F0C7
:101E100047FC0120FFF7C8FF034B1A00F1E7C0465B
:101E200008BD041018BD04107CC4041070B52B4B01
:101E30002B4A1A602B4B2C4A1A602C4B9A682A4B5F
:101E40009343FAD12A4C01E008CC9847294B9C4295
:101E5000FAD3FFF777FE234B274A1A60234B9B6880
:101E6000DB43DB01FAD1254B40229A675A671A6798
:101E7000DA66234C09E0234B234A24488721FFF7E5
:101E8000B9FF2000FEF7A4FD0834214B9C4209D283
:101E90002368002BF5D0012BEDD12000FEF7A5FD26
:101EA0000834F2E71B4DA9681B4CC022200002F049
:101EB000E9F9AC60EFF30583002B00D000BEFEF71C
:101EC00051FBFEF76FFDFFF7A5F8144C01E008CCBD
:101ED0009847134B9C42FAD370BDC04600E00040C7
:101EE000BFCDFBFE00F00040FE7F3C0000C0004084
:101EF0001023002020230020FFFFFF0100F00140FD
:101F00000823002048BD0410DCDC041068BD041068
:101F10001023002000ED00E000000020202300201E
:101F2000442300200FB400B583B0084802F088FBBA
:101F3000049B002B07D005A90191180002F090FB2B
:101F4000034802F07DFB0120FFF72EFFB0BD041017
:101F500058C004109A4200D288547047704710B598
:101F6000002802D00B684968984710BD0100002086
:101F700007E083001B185B00501C08601078C01835
:101F800030380A681378303BDBB2092BF1D970473F
:101F9000F0B5DE4657464E464546E0B583B093461B
:101FA0001F000C9B9A460D9C0E9B99460F9B9B070E
:101FB00003D0B8460F00060022E00192A3468846EF
:101FC0004E46B9460700B44207D2551C4B4641461F
:101FD0002020B84701342A00F5E73D004F465C4613
:101FE000019B9B46B1464646B84637002E0007E0A7
:101FF000013C551C5346185D43463900B0472A0042
:10200000002CF5D135003E0047460F9B9B0707D4B7
:10201000100003B0F0BCBB46B246A946A046F0BDD6
:10202000B0464E46B9462F005D46531BB342EFD231
:10203000541C4B4641462020B8472200F5E7F0B536
:10204000CE46474680B585B0944698460C9D0D9C7B
:102050000EAB1B789946109A119B129EB7071CD4A1
:10206000002B0CD0F7070AD54F46002F02D10C37B2
:10207000374204D0013B02E030272F55013494420F
:1020800001D21F2CF8D9F70707D59C4205D21F2C87
:1020900003D830272F550134F5E7F70612D5770519
:1020A00005D4002C03D0944221D09C421FD00F9A1B
:1020B000102A32D00F9A022A37D01F2C0AD8302289
:1020C0002A5501341F2C05D84A46002A33D02D2228
:1020D0002A550134039602930194009543466246C3
:1020E000FFF756FF05B0C0BCB946B046F0BD621E52
:1020F000012C10D00F9F102F0BD014000F9A102A14
:10210000D8D1B206D6D51F2CD4D858222A5501349E
:10211000D3E7023CCBE71400C9E7B206EED41F2C8C
:10212000ECD878222A550134C7E71F2CD2D8603268
:102130002A550134C1E7720703D52B222A550134F1
:10214000C8E73207C6D520222A550134C2E7F0B5C8
:10215000DE4657464E464546E0B593B081468A4630
:10216000089209931CAB10CB1B789B461E9D219BAC
:102170009846002C03D1102342469A439046802370
:10218000DB0046461E4042461A4212D0002C22D0A6
:1021900000260EE03033D9B2771C0AAB99552900DE
:1021A000200001F037F8AC4216D31F2F14D83E00A0
:1021B00004002900200001F02DF8CBB2092BE9D949
:1021C0004246920605D54121C918C9B20A39C9B299
:1021D000E2E76121F8E7270043460693209B059339
:1021E0001F9B049303955B46029301970AAB0093F0
:1021F000099B089A51464846FFF721FF13B0F0BCEF
:10220000BB46B246A946A046F0BDF0B5DE465746ED
:102210004E464546E0B597B00A900B910C929A460F
:10222000209B9946219F22AA13789B46249B0993C1
:10223000259C289B98464A463A4302D11032934344
:1022400098468022D20045461540434613420AD0A4
:102250004A463A4341D000252E0053460D934D4641
:10226000099B9A461BE02E0053460D934D46099B51
:102270009A4614E03033DAB2731C99460EAB9A5585
:10228000524623002800390001F002F8BC4226D84B
:1022900019D04B461F2B1CD84E4605000F00524646
:1022A00023002800390000F0F3FFD3B2092BE1D955
:1022B0004246920605D54122D218D2B20A3AD2B28B
:1022C000DAE76122F8E7AA45E3D94E460D9B9A4624
:1022D00008E04E460D9B9A4604E0002602E04E467A
:1022E0000D9B9A4643460693279B0593269B049392
:1022F000099B03935B46029301960EAB00935346F2
:102300000C9A0B990A98FFF79AFE17B0F0BCBB46DF
:10231000B246A946A046F0BDF0B5DE4657464E4649
:102320004546E0B591B0804689460C929A461A9C83
:102330001B9D22002B002000290001F03CFA002800
:1023400000D0ECE001225242D44B2000290001F0E1
:102350002DFA002800D0E2E001225242D04B2000AA
:10236000290001F00DFA002800D0D8E00022002357
:102370002000290001F004FA002800D0E4E00694CF
:1023800007958023DB001E9A1A400D921E9A1A426E
:1023900001D106231C930698079902000B000892AE
:1023A000099303000A00024300D1D9E0080D40055B
:1023B000400DBC4EB44660440A03120B1E00BA4BDB
:1023C00013431F0001F00AFAB84AB94B01F08DF926
:1023D000B84AB94B01F062F9089009910022B74B55
:1023E0003000390001F051F9B54AB64B01F07DF9E2
:1023F00002000B000898099901F050F901F006FA63
:10240000834601F0EBF906000F00AF4AAF4B01F035
:102410006CF90022AE4B01F041F901F0F7F9089098
:10242000AC4AAD4B3000390001F05FF906000F00F7
:10243000089801F0D3F9A94AA94B01F056F9020016
:102440000B003000390001F020F906000F000200F7
:102450000B0001F04AF90A900B91089BA14A94469F
:10246000634400210022089109921B05099300236F
:10247000089332003B003000390001F00FF90E9054
:102480000F9132003B0000208021C90501F0FDF8CA
:1024900006000F000022944B0A980B9901F007F9EF
:1024A0000022924B01F0FAF802000B000A980B99F7
:1024B00001F0FDF800228E4B01F0F0F802000B0055
:1024C0000A980B9901F0F3F802000B003000390074
:1024D00001F0E4F802000B000E980F9901F0E7F804
:1024E0000022714B01F0DAF8089A099B01F0FDF81F
:1024F00006000F0008960997069A079B01F056F907
:1025000000282FD001235B429C46E3440022774BF6
:102510003000390001F0CBF80890099122E01E9BB1
:1025200004931D9B03931C9B0293009401955346B7
:102530000C9A4946404600F0FFF811B0F0BCBB468B
:10254000B246A946A046F0BD00210022069107929E
:10255000069480231B069C46AC446346079310E711
:1025600000239B465B466333C62B20D804261E9B64
:102570001B0528D5089A099B190011430FD05D4A05
:102580005D4B0698079901F009F900287AD00022DE
:102590005A4B0698079901F0F3F8002872D01C9B5B
:1025A0005B4506DD5A469B1A013B1C9303E005265A
:1025B000DDE700231C938023DB001E9A1A431E9242
:1025C000002600239B461D9B9E4265D29F1B022333
:1025D0001E9A1A400A921E9A134202D0002E00D070
:1025E00000275B46002B07D0089A099B069807999D
:1025F00001F05DF8069007910022002320002900D9
:1026000001F0BEF8002800D07CE03D4B1E9A13403C
:10261000049303971C9B0293069B079C00930194D1
:1026200053460C9A4946404600F086F8002E00D1E9
:1026300083E71E9B9B0671D54525441C534602002B
:1026400049462800C0475A46D317D2185A40052396
:102650000593013E0496002303930A3302935B46DD
:10266000DB0F019300925346220049464046FFF794
:102670006EFD0A9B002B00D15FE7020047460C9ECF
:102680001D9D53E01C9B002B9DD00D9B002B9AD0D1
:102690001C9B013B1C9396E7002798E7FFFFEF7F09
:1026A000FFFFEFFF01FCFFFF0000F03FFB799F50B1
:1026B0001344D33FB3C8608B288AC63F0000F83F5D
:1026C00061436F63A787D23F71A379094F930A4093
:1026D0000000E03F1655B5BBB16B0240EF39FAFE82
:1026E000422EE63FFF03000000002C400000244083
:1026F000000018402D431CEBE2361A3F80842E4127
:10270000FFF7FFFF069C079D22002900802000069E
:10271000844661440B000692079376E765258CE7B3
:10272000541C534649462020B8472200931BAB4215
:10273000F6D3100001E7C046F0B5DE4657464E46D8
:102740004546E0B595B00690079193469946209F7F
:102750001E9A1F9B1000190001F02DF8002831D19E
:1027600001225242BF4B1E981F9901F009F8002820
:1027700037D101225242BC4B1E981F9901F016F826
:1027800000283DD10022B94B1E981F9901F00EF888
:10279000002850D10022B64B1E981F9900F0F0FF80
:1027A000002848D1002200231E981F9900F0E8FF5E
:1027B000002850D100239846229B5B0500D4B6E048
:1027C000002458E0229B0393219B0293032301934F
:1027D000A84B00934B465A4607990698FFF7D8FB3B
:1027E0000EE1229B0393219B029304230193A24BAE
:1027F00000934B465A4607990698FFF7C9FBFFE03E
:102800000423229A1A4022990B4210D09B4B002A93
:102810000FD00422229903912199029101920093F1
:102820004B465A4607990698FFF7B2FBE8E0944BEF
:10283000EDE70322EEE7229B0493219B039302978B
:102840001E9B1F9C009301944B465A46079906987D
:10285000FFF762FDD4E01E9A1F9B0020002100F0CC
:1028600014FF1E901F9101239846A5E70CAB302260
:102870001A55013F01341F2C01D8092FF6D81E9894
:102880001F9900F0C3FF050000F0A8FF02000B0035
:102890001E981F9900F0F9FE7A4BFA009B181A68EF
:1028A0005B680A920B9300F020FF0890099100F0FA
:1028B000D1FF060000F08EFF02000B000898099976
:1028C00000F0E3FE0890099100226F4B00F06EFFCC
:1028D00000282ED00136300000F07CFF02000B00F3
:1028E0000A980B9900F052FF002801D0013500260C
:1028F000002F2CD1280000F071FF02000B001E9861
:102900001F9900F0C2FE06000F0000225E4B00F08F
:1029100037FF002846D100225B4B3000390000F021
:1029200045FF00283ED1EB073CD501353AE00627AC
:1029300046E70022544B0898099900F021FF00282F
:10294000D6D1002E01D0F307D2D50136D0E7AA4662
:102950001F2C11D8013F0A21300000F05BFC651CE0
:1029600030310CAB19550A21300000F053FC092E10
:102970000ED906002C00EBE755461F2C0CD87B1E09
:10298000002F09D00CAA302111551F000134F4E7A3
:102990002B0055461C00F0E71F2C03D80CAB2E2251
:1029A0001A5501341F2C10D80A21280000F00AFC07
:1029B000661C30310CAB19550A21280000F002FCCE
:1029C000051E01D03400EDE734000323229A1340A2
:1029D000012B1CD01F2C06D84346002B32D00CAB49
:1029E0002D221A550134229B0393219B02930194BB
:1029F0000CAB00934B465A4607990698FFF7C8FA66
:102A000015B0F0BCBB46B246A946A046F0BD219B1E
:102A1000002B13D04346002B02D10C3313420FD0AE
:102A2000219B013B2193190003E00CAB30221A5586
:102A300001348C42CED21F2CF7D9CBE72199F8E78D
:102A40002199F6E7229B5B0704D50CAB2B221A5584
:102A50000134C8E7229B1B07C5D50CAB20221A55B1
:102A60000134C0E7FFFFEFFFFFFFEF7F65CDCD41F2
:102A700065CDCDC1CCBD0410D0BD0410C0BD0410C7
:102A8000C8BD041088DE04100000E03FF0B5DE464B
:102A900057464E464546E0B593B082468846934633
:102AA0001193002900D10DE300255646119B18789B
:102AB000002800D109E3252809D06C1C5B462A00B8
:102AC0004146B047119B013311932500EEE70133D6
:102AD0001193002720E001231F43013211920124AA
:102AE00018E002231F4301321192012412E0042353
:102AF0001F430132119201240CE008231F430132CD
:102B00001192012406E010231F4301321192012487
:102B100000E00024002C09D0119A1378203BD9B290
:102B20001029F6D88B00C849CB589F46119B1A78BC
:102B30001300303BDBB2092B10D92A2A13D00B9497
:102B4000119B1A782E2A1ED0119A1378683BD9B29D
:102B5000122959D88B00BD49CB589F4611A8FFF7C1
:102B600005FA0B90ECE71C9B1A1D1C921B68002BAE
:102B700004DB0B93119B01331193E1E7022217430E
:102B80005B420B93F6E78022D20017435A1C119246
:102B90005A781300303BDBB2092B0BD92A2AD3D148
:102BA0001C9B1A1D1C921C68002C08DB119B013316
:102BB0001193C9E711A8FFF7D9F90400C4E700246D
:102BC000F4E780235B003B43511C119151786C2941
:102BD00001D01F0018E0C0239B001F430232119256
:102BE00012E080233B43511C11915178682901D098
:102BF0001F0009E0C0231F430232119204E080232A
:102C00005B001F4301321192119B1878672818D876
:102C1000252800D24CE20300253BDAB2422A00D933
:102C200046E293008A4AD3589F4680239B001F4365
:102C300001321192E8E780235B001F4301321192B9
:102C4000E2E7782800D933E2692800D230E20200B6
:102C5000693AD2B2012393407E4A134211D11A0637
:102C600000D500E25B0500D422E21C9B1A1D1C92D9
:102C70001B689A46002C00D0B2E101225242534612
:102C80008EE16F280ED006D858283DD0622804D196
:102C900002239C4608E0782839D010239F43063B46
:102CA0009C4601E008239C46582833D0692803D06D
:102CB000642801D00C2297437A0501D5012297435D
:102CC00069282AD0642828D0BA0500D59FE0FA05E3
:102CD00000D5C1E07A0600D4D3E01C9A111D1C91E6
:102CE0001168FF220A4005970B9B049303946346E7
:102CF00002930023019300925B462A004146300074
:102D0000FFF725FA050027E010239C46CCE71023A7
:102D10009C46C9E720221743C8E7BA0520D4FA0524
:102D200050D47A0666D51C9A111D1C911168FF2299
:102D30000A40D0171118414005970B9B0493039448
:102D400063460293D20F019200915B462A004146EE
:102D50003000FFF7FCF90500119B01331193A5E644
:102D60001C9A073207218A43110008311C9111680F
:102D700053689946DB170C930D930C9A0D9B10002A
:102D800048400E904A4653400F930E980F990C9A64
:102D90000D9B801A99410E900F9108970B9B0793FA
:102DA000069463460493002305934B46DA0F029280
:102DB000009001915B462A0041463000FFF725FA5A
:102DC0000500C9E71C9A111D1C911268D017111833
:102DD000414005970B9B0493039463460293D20FE3
:102DE000019200915B462A0041463000FFF7AFF99F
:102DF0000500B1E73A0605D51C9A111D1C91002368
:102E0000D25E96E71C9A111D1C91126891E71C9ADC
:102E1000073207218A43110008311C9108970B9B48
:102E20000793069463460493002305930293536823
:102E30001268009201935B462A0041463000FFF77A
:102E4000E4F9050088E7C046ECDC041030DD04102E
:102E50007CDD0410419000001C9A111D1C91059707
:102E60000B9B04930394634602930023019313681E
:102E700000935B462A0041463000FFF768F90500E1
:102E80006AE73A0606D51C9A111D1C9112681204B5
:102E9000120C28E71C9A111D1C91126823E7462882
:102EA00019D01C9B0733072293431A0008321C9247
:102EB00004970B9A039202941A685B68009201933C
:102EC0005B462A0041463000FFF736FC0500119BA7
:102ED00001331193EAE520231F43E2E7672801D07D
:102EE000472802D180231B011F43452801D04728D2
:102EF00001D120231F431C9B0733072293431A0051
:102F000008321C9204970B9A039202941A685B6829
:102F1000009201935B462A0041463000FFF7FCF91E
:102F20000500119B01331193C0E502231A003A40BA
:102F300091463B421DD001241C9B1A1D1C926F1C04
:102F400018785B462A004146B0474B46002B14D107
:102F5000119B013311933D00A8E5571C5B46414688
:102F60002020B04723003A005C1C9D42F5D8150094
:102F7000E2E701232A000B9DF6E73A00B1460B9EDB
:102F800006E0571C5B4641462020C8472C003A000B
:102F9000651CA642F5D817004E46D9E701330A0052
:102FA0001978002902D0511E002AF7D152469B1AE7
:102FB0008022D200390011408946174202D0A34234
:102FC00000D9230002221100394010913A4209D061
:102FD0002A00250057469A4633004E46994621E07E
:102FE00022004CE62A004546A04606E0541C5B46FB
:102FF00029002020B0473B0022005F1C0B9999421A
:10300000F4D84446A8463B00250057469A4633006C
:103010004E46994606E01D000137541C5B4641466A
:10302000C84722003878002804D0002EF4D06B1E48
:10303000002DF0D1150053464E46109A002A03D1B8
:10304000119B0133119331E50B9F2A0006E0551CBB
:103050005B4641462020B04723002A005C1C9F426B
:10306000F5D81500ECE721233B431C9A111D1C9158
:1030700012680593082304930394083302930023F2
:10308000019300925B462A0041463000FFF75FF84B
:103090000500119B0133119308E56C1C5B462A0067
:1030A00041462520B047119B013311932500FDE4D3
:1030B0006C1C5B462A004146B047119B01331193BB
:1030C0002500F3E40A4B9A46EEE4B2465D450DD383
:1030D0005B465A1E5B4641460020D047280013B08D
:1030E000F0BCBB46B246A946A046F0BD2A00F1E7B7
:1030F0005D1F00100EB430B584B0010007AC08CCE1
:1031000003940122054D009452422800FFF7BEFCB3
:1031100004B030BC08BC03B01847C046551F0010AF
:1031200010B582B0044C009313000A000100200087
:10313000FFF7ACFC02B010BD551F001000B585B004
:103140000290039101210448009313004A4202A90E
:10315000FFF79CFC05B000BD5F1F00100148042173
:10316000014B1847701200208D31001010B501007E
:1031700018231B8814221088984710BD10B5010031
:1031800018231B8816221088984710BDF0B5C64634
:1031900000B507000E0000250123984600E0013528
:1031A000B5420AD2AC003C192068FFF7DFFF20606F
:1031B0000028F4D100239846F1E7404680BCB84689
:1031C000F0BD0000124A936F9B0815D29066D1663D
:1031D000002905D0FFE7FFE7FFE7516F106F704749
:1031E00004B580210906C2175140002800D0C84309
:1031F00048F09AF9002104BDF0B5146E556E576F72
:10320000166FFFF7E3FF1466556657671667F0BD44
:10321000000000D0114A936F9B0813D210665166CC
:10322000002905D0FFE7FFE7FFE7516F106F7047F8
:1032300004B5002801D00020C04348F075F90021F2
:1032400004BDC046F0B5146E556E576F166FFFF78C
:10325000E5FF1466556657671667F0BD000000D09D
:1032600094464A4A926F9208624601D228E0C046CC
:10327000F0B5464E346E756E776F366F00F020F8FD
:103280009446424A14665566576716676246F0BD13
:1032900094463E4A926F9208624601D254E0C0467C
:1032A000F0B53A4E346E756E776F366F00F04CF8AD
:1032B0009446364A14665566576716676246F0BDEF
:1032C000002B24DB11D000293EDA00B5C94340426F
:1032D00000D1013100F038F8C943404200D101313A
:1032E000DB43524200D1013300BD002AEBD100285C
:1032F00001D1002905D00020C90FC90701D1C04361
:10330000410800B548F0E8F80022002300BD00B5F0
:1033100000290ADBDB43524200D1013300F014F8EC
:10332000C943404200D1013100BDC943404200D1F0
:103330000131DB43524200D1013300F005F8DB4399
:10334000524200D1013300BD002923D1002B18D1F6
:10335000002A0CD0BC460D4F38667A660021002347
:10336000FFE7FFE7FFE77A6F386F6746704700288F
:1033700001D00748010000B548F0AEF80022002354
:1033800000BD02000B00002000217047000000D0AB
:10339000FFFFFFFF002B00D0BFE0130C28D1002A55
:1033A000E7D080B4114F39667A66FFE7FFE730B4A3
:1033B000040C7B6F396F1B0423433B667A66FFE77F
:1033C000FFE7FFE7C04684B27B6F3D6F1B042343DA
:1033D0003B667A66FFE7FFE7C04600232C042D0C0E
:1033E0007A6F386F00196941B0BC7047000000D097
:1033F000F0B594460025140E01D112020835140FC1
:1034000001D112010435940F01D192000235D40F7D
:1034100001D152000135D40B0134254F7C66254C77
:103420003C660E0C93B2FFE7FFE7FFE73C6F664395
:10343000360C7703BE467343DF0B5B04C01AB941F9
:10344000130C7343DB18C91ACE086643360CB64416
:1034500093B273431F0F1B01C01AB941130C73437E
:103460001F0B1B05C01AB941860D8F023E436643F0
:10347000360C092D24DB520A7243801A7703460A60
:103480006643360C16235B1BDE40DF40BF196446E3
:103490006643821B7046043506330100D940A840BC
:1034A000C01900D30131A24206D20023F0BD0000B2
:1034B000000000D0FFFFFFFF121B0130F3D3F1E744
:1034C00009277F1BFE406446A2B27243801A00D2D5
:1034D0000139220C7243130C1204821A99410B0019
:1034E0007046043513370100F940A840801900D315
:1034F0000131002B02D1A2420AD2F0BD013000D32B
:103500000131121BFAD2013BF8D1A24200D2F0BD28
:10351000013000D30131121BF7E7F0B51C0C00D0CD
:1035200080E00CB400251C0A04D11B02160E3343A4
:10353000120208351C0B04D11B01160F3343120174
:1035400004359C0B04D19B00960F33439200023547
:10355000DC0B02D192185B4101351C0097186441C5
:103560000134464F7C66464C3C660E0CFFE7FFE795
:10357000FFE7C0463C6F6643360C7703BE4697B202
:103580007743C01B00D20139C01B00D201399FB262
:103590007743C91BC91B170C77437E04FF0B801BA5
:1035A000B941CE086643360C0C2D33DBB644120B02
:1035B0001F053A431B0B97B27743C01B00D201395A
:1035C0009FB27743C91B170C77433E043F0C801B07
:1035D000B941860D8F023E43664329277F1BFE407B
:1035E0000C3D7746AF40BF1930BCA2B2ABB27243BC
:1035F0007343801A9941220C7243130C1204801AEF
:10360000994102000B000137001BA941F9D2781E35
:103610000021F0BD0C277F1BFE4077467F0BAF409B
:10362000FF19E0E700245D1C07D0144F7D66396662
:10363000FFE7FFE7FFE7FFE73C6F95B29EB2654308
:103640006643401BB141150C1E0C654366433604AE
:103650002F0C3E432D04401BB141994204D202007D
:103660000B0020000021F0BD01D19042F7D3801A59
:10367000994101349942F2D3F6E70000000000D0EE
:10368000FFFFFFFF48404140484018B41B4B5B68B8
:10369000FC46019308BD04DFFB39001018B4174B3A
:1036A0001B68FC46019308BD00DF053A00109446F4
:1036B000134A926F920809D2624618B40F4BDB6826
:1036C000FC46019308BD0CDFBD3C00100C4AF0B570
:1036D000146E556E576F166F6246FFF7EEFF084A7D
:1036E0001466556657671667F0BD18B4034B9B68A0
:1036F000FC46019308BD08DF613B0010EC3A002056
:10370000000000D0FFB550404240504059404B406F
:10371000594000E0FFB5154F4C00640D03D0BC428A
:1037200004D10C0314D80020090D09055C00640DB8
:1037300003D0BC4204D11C030AD800221B0D1B0578
:1037400001264B4009D44B4003D58B4200D1824225
:10375000FFBD9942FCD19042FFBD0B43DB180343F0
:103760001343F5D0C9434918FFBD0000FF0700000F
:1037700000B5FFF7CFFF01D0002000BD012000BD44
:1037800000B5FFF7C7FF804100BDC04600B5FFF799
:10379000C1FF01D9002000BD012000BD00B5FFF729
:1037A000B1FF01D9002000BD012000BD00B5FFF729
:1037B000A9FF804100BD012040054A00121804D82D
:1037C0005A00121801D800207047012070470020CD
:1037D000704700000021002805D17047C1174840FC
:1037E000401AFAD0C90713B5064B1B6898470CBCA2
:1037F000441CA2401005120B0349091B090519437B
:10380000114310BDEC3B00201F04000010B54C001C
:10381000620D8023D218DB00D21A5B057E2A10DDF0
:103820009E3A13DACC170903490819435242D14092
:10383000640001341532202A05DAD0400843604381
:1038400010BD002010BD0846604310BDC80FC01851
:10385000013810BD18B4044B5B6AFC46019308BDE7
:1038600024DF6D3E00100000EC3A002018B4044B39
:10387000DB6DFC46019308BD5CDF793F0010000062
:10388000EC3A0020C94211D300B549004908002292
:1038900000F018F8002904D4002240428A41114661
:1038A00000BD80210906002000BD000018B4044BB3
:1038B000DB6EFC46019308BD6CDF7B3E0010000010
:1038C000EC3A002018B4044B9B6FFC46019308BDF2
:1038D00078DF973E00100000EC3A002018B4044B4B
:1038E000DB6FFC46019308BD7CDF053F0010000044
:1038F000EC3A002070B513231C78012C12D0012C57
:1039000012DC214B214A93642148FFF72FFC214B05
:10391000186070BD1C491D4A9800815001331F2B4F
:10392000F8D9ECE70023FAE71B48FFF727FC05006E
:103930001A48FFF723FC023803789B007F2B09DD30
:1039400012488022290000F09DFC022C08D0022C95
:10395000DADCD6E7124B134A13483221FEF74AFA53
:10396000124B1A88B5231B029A4209D1104B1A88B0
:10397000104B9A4204D1104B1A88104B9A42E6D051
:103980000020FEF7CFFAC046C1390010EC3A002003
:103990004C330000EC3B0020534400005346000031
:1039A000D8BD0410D8DE04102CBE0410543800001A
:1039B000D8380000494600009C38000059460000F5
:1039C00007B56046002800D100BE01880A0A02300F
:1039D000DF2AFAD1C9B2820804D3028840880004E1
:1039E000104300E00068024A5050039007BD0000F9
:1039F000EC3A00200FB403BC0CBCF0B50124E40782
:103A0000634000E0F0B50C0DCF0F661E3605891B34
:103A1000640503D3C943404200D30131640D03D090
:103A2000661CF60A07D0E41B00207F00791C89077A
:103A30008912803C24031D0DDF0F6E1E36059B1B73
:103A40006D0503D3DB43524200D301336D0D03D028
:103A50006E1CF60A07D0ED1B00227F007B1C9B0723
:103A60009B12803D2D032F1B661B58D4A446202E8D
:103A700046DA20371400BC401D00BD40F2403341FF
:103A80002A4380185941CB0F05D0C943C0430022B7
:103A900064425041514162464D0D28D10D0D07D170
:103AA00000281FD0241940414941013A0D0DF9D099
:103AB000640006D3013000D30131002C01D140084D
:103AC0004000013A0BD4941CE40A04D112051144BD
:103AD000DB071944F0BDD907204B194300E0D90793
:103AE0000020F0BD0029DDD1002CDBD1F0BD01327A
:103AF000C6074008CD0728434908002EE1D0D9E782
:103B00003C2E29DA203E40371400BC4000D001246E
:103B1000F24014431A00BB401C43D317ACE7AC4639
:103B2000202F08DA20360400B4400D00B540F840DC
:103B300039412843A5E73C2F0CDA203F40360400EA
:103B4000B44000D00124F84004430800B1400C43C5
:103B5000C117EAE710001900002494E70000F07F85
:103B6000F0B50C0D661E3605891BE60A6405640D6A
:103B700002D0651CED0A04D0002001210905803C1B
:103B80002403A4461C0D671E3F05DB1BE70A6405E2
:103B9000640D02D0651CED0A04D0002201231B0530
:103BA000803C24037740644497B484B296B2744353
:103BB000070C7E43150C6F4380B26843361802D35E
:103BC000012000043F183004350C00197D41844663
:103BD00088B29AB250430C0C62431F0C7C438EB2E5
:103BE0007E43921902D301263604A4191604170C39
:103BF0003618674101BC81B29AB25143040C62434A
:103C00001B0C5C4380B25843121802D301200004FD
:103C100024181004130C401863412D185E41002035
:103C2000474106BC88B293B258430C0C6343120C54
:103C3000544389B251435B1802D30121090464182B
:103C400019041A0C091862416D18564100204741A9
:103C500018BCF902720D1143F0026A0D1043ED0217
:103C60000A0D03D16D1940414941013B124E9B1B86
:103C70007600B3420ED26D0007D3013000267141A9
:103C80006646354301D1400840001B05C918E407CA
:103C90002144F0BD0BDA013306D1013004D10131EA
:103CA0004F0D01D04908F2E7E1070020F0BD0136D1
:103CB00031050020EBE70000FF030000F0B51C0D0C
:103CC000671E3F05DB1BE70A6405640D02D0661C16
:103CD000F60A04D0002201231B05803C2403D025D2
:103CE0002D060026F6432E661E096E66CE0FF619C7
:103CF000B44649004F0D02D07E1CF60A03D00020C6
:103D00000021403F3F033E1BB600B444013F7F0506
:103D1000C91B49082E6F013676089C02950D254374
:103D20007543ED137543AD1301356D10F603761B26
:103D30000CB4CC02450D2C43A2B2B3B25A43270CAB
:103D40007B43350C6F43A4B26C431B1902D301248F
:103D500024043F191C041D0CA4187D4124196D4135
:103D6000009A91B2ACB26143170C7C432B0C5F43B9
:103D700092B25A43A41802D301221204BF1822049B
:103D8000230C52187B41019C6C431B19520ED90124
:103D90000A434401A01A81B2B2B2514303145A43F8
:103DA000360C734387B27743D617D21900277E416A
:103DB00036049B191704160C7F185E417316ED1814
:103DC000F301002680337541A90F06D16400690A0A
:103DD000E8055B0A184309D22FE00422944480339B
:103DE0007541A90AA8059B0A184326D340414941B9
:103DF0002404009A019B0D005543641B4343E41ABD
:103E000095B286B27543170C7E43030C5F4392B2A2
:103E10005A43B61802D301221204BF183204330CDD
:103E200052197B4152429C41002C02D400220130A5
:103E300051414008CA071043490802B06246D707FB
:103E40009210084BD218084B9A4203D212058918D7
:103E5000C919F0BD0020002A01DC3900F0BD013392
:103E60001905F5E7FD030000FE070000002200B57C
:103E7000203200F010F8080000BD002200B500F06C
:103E80000CF8CA179A4200D100BDD8430121C907D6
:103E9000414000BD00220B150AD410B5944600F035
:103EA000A7F81414013400DA0021CB17144C204772
:103EB0000020002170476244343A0CD40C2A07DAFF
:103EC00004009140904052422032D440214310BD22
:103ED000D843D94310BD203207D40C4694405242F7
:103EE00020321141D040204310BD0800C9172032B4
:103EF00003D452422032104110BD1800190010BDE9
:103F0000B73E00104A00520D144BD21A13DDFF2A9F
:103F10001EDAD205CB0FDB071A43C300400F09039B
:103F2000490A084310435B0001D301D001307047B8
:103F30004308FBD2704702D0C80FC00770470A037E
:103F400012130132F8D1420F072AF5D1012200E005
:103F5000FF22C80F00028018C005704780030000D0
:103F600000210A00002104E000210A00C11704E03A
:103F70000022002306E0C0460022CB1758405940DB
:103F8000C01A994130B5184CA21A002903D101007A
:103F900010D00020203A4C1512D104D2013A00185A
:103FA00049414C0DFAD3114CA24204D21205891892
:103FB000DB07C91830BDD243520D00200021F5E7C0
:103FC00003D4013A00184941FBD50B324405C00A1D
:103FD0004D052843C90A640003D0002460416141B3
:103FE000E1E7E0D34408F8E732040000FE070000F0
:103FF0000A0DCC0F531E1B05C91A520503D3C94322
:10400000404200D30131520D03D0531CDB0A07D0CC
:10401000121B00206400611C89078912803A120378
:10402000014BD21A70470000FF0300005143434385
:10403000C9188C46110C83B24B4310B4040C614375
:1040400092B280B2504362431C041B0C001910BC96
:1040500059411304120CC0185141614470470000CB
:1040600007B548404140484001E0C04607B542001E
:10407000120E03D0FF2A03D1420218D8C00DC0058A
:104080004A00120E03D0FF2A03D14A020FD8C90DED
:10409000C9050122414005D4414001D5814207BDF7
:1040A000884207BD0143491801D0C043001807BD2D
:1040B00000B5FFF7DBFF01D0002000BD012000BDEF
:1040C00000B5FFF7D3FF01D9002000BD012000BDDE
:1040D00001231B064200D21804D84A00D21801D886
:1040E000002070470120704770B513231E782A48BE
:1040F000FFF744F80500012E11D0012E09DDAB1E9B
:104100001B789B007F2B40DD24488022290000F093
:10411000B9F82348FFF72AF8224B186070BD1F48F2
:104120005422290000F0AEF81F4B1A881F4B9A4208
:104130001CD1A7239B011A881D4B9A4216D11D4BF7
:104140001A881D4B9A4211D11C4B1A8894239B014B
:104150009A420BD11A4B1A881A4B9A4206D11A4B23
:104160001A681A4B9A4201D1152307E01848FDF747
:10417000D9FE184C094A99008C5001331F2BF8D9ED
:10418000144B064A1362D361B7E7134B134A144822
:104190004221FDF72FFEC04653460000F03B0020B1
:1041A0004C330000EC3B0020EE290000C40F00005F
:1041B000C20D0000962B0000C0B50000182B0000B7
:1041C000CC2A000010B50000FC2C000051ED8764E3
:1041D0007CC40410E54100107CBE0410ECDE041029
:1041E000B0BE041007B56046002800D100BE0188AB
:1041F0000A0A0230DF2AFAD1C9B2820804D302883F
:1042000040880004104300E00068024A50500390C8
:1042100007BD0000F03B002010B5002804D0401876
:10422000034B984200D810BD0248FDF77BFEC04604
:1042300000000420FCBE041070B5050037F0CCF877
:1042400004002900FFF7E8FF200070BD70B50D00E5
:1042500037F0C8FB04002900FFF7DEFF200070BD27
:1042600010B537F0C3F810BD01480421014B1847C1
:10427000801200208D310010014B1B681847000090
:1042800080120020014B5B6818470000801200205C
:10429000084B5B6A994209D8064A926A824207D261
:1042A000994201D0012002E0002000E00020704788
:1042B0000120FCE70040054010B503000800110094
:1042C0001B68984710BD0000F8B507000D001600E8
:1042D000437D002B02D0002400200CE00368110075
:1042E000280098472DE03B7D10E03B6815480221EF
:1042F0009847601C0134B44214DA002CF3DD2B190A
:10430000013B1B780D3B5A425341DBB22A5D0A2A1E
:10431000F0D1002BEED1A042E7DA3B68211A281831
:104320009847E2E7B04203DA3B68311A2818984709
:10433000002E06DDAD19013D2B780D3B5A4253414D
:104340003B75F8BD30DF041070B505000368002B25
:1043500016D00C4B1C6805E0290004C92000FFF7AB
:10436000B3FF2469002C09D02368002BF9D0064B39
:104370001B68002BF0D0A342F3D1EDE700232B60A4
:1043800070BDC046EC380020F438002070B5050040
:104390000C000B68802B05D023685A1C2260E4189F
:1043A000257170BD0800FFF7CFFFF5E710B5002BB2
:1043B00002DB0260436010BD024B034A03483F2109
:1043C000FDF718FD28B8041034DF041044B80410B9
:1043D00010B582B00400FCF7D3FF02000B00684662
:1043E000FFF7E4FF009A019B22606360200002B0A7
:1043F00010BD000070B582B0060014001D00FA2246
:104400009200002306980021FFF710FE02000B0027
:1044100012196B41002B09DB6846FFF7C7FF009AB2
:10442000019B32607360300002B070BD01225242C5
:10443000004BF1E7FFFFFF7F30B585B004000D00B2
:1044400002A8FFF7C5FF029A039B00952000FFF723
:10445000D1FF200005B030BDF8B5CE46474680B547
:1044600007000E00914698461BE0A368002B04D07D
:10447000310038009847002818DC2469002C06D049
:104480000C4D2D68002DF0D0A542F6D1EDE7484641
:104490004146FFF7FDFE002806D101200021FCF770
:1044A0008FFF054B1C68E9E701204042C0BCB946BC
:1044B000B046F8BDF4380020EC38002000B583B0D9
:1044C000FA2189006846FFF7B7FF009A019B02486E
:1044D00047F04AF803B000BD0823002010B5024899
:1044E00046F0F2FF10BDC04608230020F0B5CE46CE
:1044F000474680B583B006000D0090461C00FFF7CC
:10450000DDFF81466B1C05D0002C08D0194F1A4BDB
:104510001C6807E030003CF04FFD0500F4E7174F42
:10452000F5E72469002C17D02368002BF9D0144B31
:104530001B68002B01D0A342F3D12A0031002000D8
:10454000B8474346002BECD06B46D91D0A230B70AD
:1045500001222000B847E4E74B46002B07D16B1E31
:104560009D41E8B203B0C0BCB946B046F0BDFFF70C
:10457000B5FFF4E7B9420010EC380020C942001042
:10458000F438002010B5030008001100002B05D1FD
:10459000044B1A685B68FFF75FFF10BD01204042C3
:1045A000FBE7C04638DC041010B503000800140017
:1045B000013B012B06D8002300222100FFF796FFC4
:1045C000200010BD01204042FBE70EB40120404214
:1045D00003B07047012040427047012040427047BD
:1045E0000120404270470300002002229A424041CD
:1045F00070470000094A01E010331A001368002BCD
:1046000008D08342F8D1002907D103691360002341
:10461000036102E0002900D010607047EC380020F0
:1046200010B5064B1C6801E098472469002C03D0A4
:104630006368002BF8D1F8E710BDC046EC380020C5
:1046400070B505003CF0B8FC040000230122010015
:104650002800FFF74BFFFFF7E3FF200070BD0000CD
:1046600070B5A2B004000E00FFF728FF050000237C
:1046700001930A483300220001A9FEF75FFD040000
:1046800001A8FFF761FEFFF7CBFF002D02D120004C
:1046900022B070BDFFF722FFF9E7C0468D4300103E
:1046A0000FB400B583B004A901C90191FFF7D8FF89
:1046B00003B008BC04B0184710B500F0FFF80120A3
:1046C00010BD000010B582B00C00144BC3185A4244
:1046D0005341134A5B009B5E8B4204D06B46DA1D4C
:1046E0001470002115E06B46DA1D0D2313700021B4
:1046F0000029F3D183699B06FCD413780360013150
:104700000132F5E783699B06FCD41378036001311D
:1047100001320029F6D002B010BDC0460080FCBFB7
:10472000043D002082B000226B46D91D06E083695B
:10473000DB06FCD403680B7001320131002AF6D08D
:104740006B46D87902B0704770B506000D000024A2
:1047500005E0315D034B1868FFF7B4FF0134AC424C
:10476000F7DB70BD083D0020F8B506000D000027FE
:1047700005E07C1CF719FFF7D5FF38702700AF4222
:1047800004DA0E4A10688269D206F2D50C4A126821
:10479000002A0CD0094A126850219163100034306D
:1047A000526B183911408022520102431160002FD0
:1047B00001D03800F8BD033FFBE7C046083D0020AC
:1047C0007C38002010B5064B1B68002B06D0054A2C
:1047D000126800219163044A1068984710BDC046D2
:1047E0007C380020083D00208038002070B505008E
:1047F0000E001C4B1A681C4BD31859424B41143302
:104800001C0000281ED0194B1B68002B04D0174B2E
:104810001D60174B1E6070BD16492000FBF75CFF42
:1048200001212000FBF748FF0E4B1B6850229A63C2
:10483000190034315B6B183A1A4080235B010B433B
:104840001A60E4E7094B1B68002BE0D00023936358
:1048500000212000FBF730FF06492000FBF766FF30
:10486000D5E7C046083D00200080FCBF7C38002012
:1048700080380020C547001070B50D001C000D4B9E
:104880001860002A0BDA002C0EDA0A4B186829008F
:10489000FDF794F808480121FFF7ACFE70BD022136
:1048A0001000FBF70DFEEEE702212000FBF708FEEB
:1048B000EBE7C046083D00209012002010B5064BE3
:1048C0001B78064B1B78E121012300224902044892
:1048D000FFF7D2FF10BDC04608F6051004F605101C
:1048E0000040034070B5194C083863680668002B17
:1048F00020D08519AB421DD85A6821D00434002A33
:1049000006D10DE051681C1D1300002907D00A00D4
:104910009542F7D803D12A68B6186A685A602368A6
:104920001A689918884208D05B680660436023685B
:10493000586001E04360606070BD92191A60FBE747
:104940001B6842609B1903606060F5E7BC2800208B
:10495000020030B50832083000D3082207230F497F
:10496000073248689A430431002804D10EE0011D43
:10497000406800280AD003689A42F8D845689C1A13
:10498000072C04D803602B000B60083030BD83185F
:104990005D6008681C600260F6E7C046BC28002025
:1049A00070B580300500FFF747FC041E07D0802259
:1049B00000212000FFF760FC2000803070BD28003F
:1049C000FFF7C6FF041EF2D100F0D0FC074B803881
:1049D0009A68DB6810B5D318984201D2824202D39C
:1049E000FFF73EFC10BDFFF77DFFFBE7BC28002072
:1049F000F0B5CE464746002580B53B4E89B03B48D2
:104A00007560B560F56036F03FFC08230293384BC3
:104A10000400039309230593364B0495069304235E
:104A2000079300283FD0344D237828003A3B5A4260
:104A30005341E4180F22210039F0C8FA002802D1AE
:104A4000E37B2E2B16D020003A2139F03BFB041ECD
:104A5000EAD1079C402C24DC049B002B00D10633B8
:104A60003E335C43A400F46020D109B0C0BCB94619
:104A7000B046F0BD08AB9946103402AF3B68786889
:104A80009846002B05D01A00210039F09FFA002823
:104A900003D14346E35C3D2B13D00C37B945EDD130
:104AA000D1E74024D8E78824E400F4602000FFF731
:104AB000C3FBB060002815D0002370600460436021
:104AC000D3E7404601302018002201A938F04AFA05
:104AD000019C23783A2B01D0002BB4D10028B2DB03
:104AE000B860B0E7F060C0E7BC28002074BF0410D5
:104AF00088BF041094BF0410A0BF04101EB400F0BF
:104B000093F81EBC46F018FDF0B5C64600B51E0071
:104B100003780C0082B0472B1FD00020284D2B6853
:104B200001909B682800984701239846002804D0EC
:104B3000019B1B68019302239846236829001F6983
:104B40002000012301AAB847002826D10023984657
:104B5000404602B080BCB846F0BD43784E2BDCD155
:104B60008378552BD9D1C378432BD6D10379462BE3
:104B70001BD0432BD1D143792B2BCED183792B2B37
:104B8000CBD1C279012AC8D8002301930300203B6E
:104B90001D68012A04D05830C1E7019B3360D7E774
:104BA0002B00783B28001D68B9E743794F2BB4D11F
:104BB0008379522BB1D1C079024D0028AFD0ACE738
:104BC000E4DF0410B8DF041010B5040000F07CF836
:104BD00022002378203A472B05D08368002B20D170
:104BE0008260012010BD63784E2BF6D1A378552B3F
:104BF000F3D1E378432BF0D12379432BEDD16379C3
:104C00002B2BEAD1A3792B2BE7D1E379012BE4D825
:104C1000D3690133D361012BE3D18368936182604F
:104C2000DFE700F0A3FBC04610B500F04DF803002D
:104C3000806800282DD02022825C472A03D00022E1
:104C40009A60203010BD263A825C4E2AF7D12C3A69
:104C5000825C552AF3D1323A825C432AEFD11F3A63
:104C6000825C432AEBD11E3A825C2B2AE7D1053ABB
:104C7000825C2B2AE3D1043A825C012ADFD8C26924
:104C8000013AC261002ADCD182699A600023836103
:104C9000D7E700F06BFBC0467047C0467047C04680
:104CA00000487047B0BF041000487047C0BF0410F0
:104CB00010B50400042133F0F1FF200010BDC04600
:104CC00000487047A827002000487047A827002008
:104CD000F0B5D64646464F468A46C0B5060050282F
:104CE00024D00F2404400C2C00D96FE03848A400D5
:104CF00000598746547810782402044390780004C1
:104D00002043D47824060443101D002C08D07025BD
:104D10003540102D00D1924676B25444002E0ADB65
:104D20001C60E0BCBA46B146A846F0BDD01C0322C8
:104D3000904310C8F4E72468F2E75478107824020E
:104D40000443907800042043D478240604431000E0
:104D50000830DAE75478107824020443901CD4E732
:104D6000547810782402044324042414901CCCE7C3
:104D70007F21150000240027884640462978013508
:104D80000840B840044348B207370028F5DB280044
:104D90001F2FBAD84D06B8D50125BD406D422C4312
:104DA000B5E700218C467F31150000248846474630
:104DB00061462878013507408F400721894640B277
:104DC0003C43CC440028F2DB28009EE736F060F933
:104DD00000E00410030010B50800FF2B10D0702273
:104DE0001340302B13D004D8202B07D146F064FB9E
:104DF00007E0402B06D146F0AFFB02E0202B04D8A1
:104E0000002010BD0020502BFBD036F041F946F0B9
:104E100083FBF6E7F8B505000E0014000020002D16
:104E200002D0280046F098FB2060771C3678FF2ED1
:104E300028D160603B78781CFF2B32D010230025EE
:104E400000217F2623753200037801301A408A4002
:104E50005BB215430731002BF5DB4519E5600022F5
:104E600000257F2603780130637531000378013017
:104E7000194091405BB20D430732002BF5DB451919
:104E80002561F8BD29003000FFF7A4FF3A000100BA
:104E9000231D3000FFF71CFF07003B78781CFF2B19
:104EA000CCD100252375D9E7F0B557464546DE46F7
:104EB0004E460023E0B597B00C9303330F009046A5
:104EC0000340012B00D1AEE0022B0ED14146380049
:104ED00046F012FB002800D0A3E0082017B0F0BC79
:104EE000BB46B246A946A046F0BD002B00D033E237
:104EF00008331C0004400342E8D1012510AB0393A2
:104F0000039B0C220021009340460023109746F09B
:104F1000EBFA404646F048FB04900028D6D02C43DC
:104F2000039D04992A0040460594FFF773FF2B7DEB
:104F30004146040018000693FFF74CFF0FABA86032
:104F40000F22079000939B4600210023404646F025
:104F500013FB01220F9B9343013B99462B699A4611
:104F60009C4242D2109B6E7D02933B007F2527001E
:104F70004C46994600213000FFF72CFF3A00010013
:104F80000DAB3000FFF7A4FE002107003000FFF753
:104F900021FF3A0001000EAB3000FFF799FE00211F
:104FA00007003000FFF716FF3A0001005B463000B3
:104FB000FFF78EFE002100222F00037801301F40F2
:104FC00097405BB239430732002BF5DB029A0D9B09
:104FD00094466344A34207D80E9A9B18A34200D973
:104FE00085E007008245C5D84F46002300259A4634
:104FF0000133059AD20771D50C9B0B935B460D22AA
:10500000009300210023404646F0B6FA0F9B06208D
:105010003B620B9B3D637B625346BB62049BFB621E
:105020005CE709205AE708231C0010AA04400392F9
:10503000034201D0022563E70D6A0023009200219C
:105040000D22404646F098FA109B9D42F2D1039BF8
:105050000C220093002100234046109746F044FAAA
:105060003D6BBC6AFB6A002D3ED004930FABA24699
:105070009B465346002B00DAB8E003265B4600222D
:1050800000210093404600230F9746F02DFA5B461F
:10509000012200210093404600230F9446F024FA99
:1050A0005B460F22002100934046002346F064FA3D
:1050B00001230F9A002113402B430F935B460F22CD
:1050C00000934046002346F00FFA022E01D007203D
:1050D00004E73800FFF778FD0720FFE6082205996E
:1050E0000A426DD1012B7FD1380033F079FE0F9B3E
:1050F0004F46002B00D1E9E6039A55685D19002957
:1051000000D10AE14C1E5444002D00D1DEE6059A80
:105110000823110019400A91134200D100E13F33E6
:105120003B7007337B700733BB70123BFB7003335C
:105130003B7109337B710333BB710023FB71002387
:10514000069A994607331A4043460993039BBA4689
:10515000984602920895002300217F252A00207896
:10516000013402408A40134342B20731002AF5DB82
:105170001F2905D8400603D501228A405242134315
:105180001E002000002500227F279C46390003785E
:105190000130194091400D4359B207320029F5DB27
:1051A000190063461F2A3ED849063CD5012191408B
:1051B0004A421543002B4BD1012399466419CAE793
:1051C000012B00D1C6E05346002B00DABEE0544666
:1051D000032653E7099BAB469846059BB24627003A
:1051E000089DDB0700D507E7544642E7039E049974
:1051F00032004046FFF70EFE4146307DFFF7EAFDE4
:10520000E343F1689B00C9180B68002B05D000230D
:1052100001339A008A58002AFAD1BB620423F8624B
:105220003B63796329E7002B12D101239946002DB6
:10523000C4D1099B574698464B46089D002B00D188
:1052400044E6059BDB0700D540E60024022615E76F
:10525000002B14DC4246DB43D7689B00FF18534603
:105260003968002B02D00A9B002B2CD00029DED1FC
:10527000099B57469846B2460323089DB9E6069A0D
:10528000FF2A48D0029A022A42D03CD9029A032A25
:105290003BD0042A60D1DB005B424246D2680799CA
:1052A000D21806985B46FFF713FD0F990029DFD04F
:1052B0005346002BBBD0002250460CABFFF724FC1A
:1052C0000028B4D0D4E70C9B0B930F93002932D065
:1052D00053465A46A246AB461C00150004E07968C6
:1052E0000437002900D175E72B000022200079182F
:1052F000FFF70AFC0028F2D022002B0054465D463E
:1053000092469B4693E7002A26D19B005B42C4E766
:105310005B005B42C1E70023BFE7002D91D1D5E5DB
:105320003B00FA795833012A01D00C9307E7783B08
:105330001B680C9303E7099B57469846059BB246AA
:10534000089DDB0700D559E6544692E600F01AF8AE
:1053500033F0D4FD00F00AF835F09AFE10B580471E
:1053600035F096FE33F0CAFD35F092FE024B10B5D3
:105370001868FFF7F3FFC046AC12002010B5804755
:10538000FFF7F4FF024B10B51868FFF7F7FFC046B0
:10539000A8120020014B18687047C046AC120020CC
:1053A000014B18687047C046A812002010B50128AC
:1053B00012D80B00283B1A68501E1860012A00D032
:1053C00010BDDB6858310C00002B01D00800984755
:1053D0002000FFF7FBFAF3E728394869FFF7BEFF23
:1053E00070B505000026803DEA602E60A9600400CB
:1053F000FFF7D6FF2861FFF7CDFF23004722583B78
:1054000068611A7007325A7007329A70220043237B
:10541000553A13705370183B9370D370024B513C44
:10542000280026702B6370BDAD53001070B50400CA
:105430000D001600FFF748FC4368320001332900D5
:1054400043602000FFF7CCFF0400012328340360F1
:10545000200046F0A1F8200033F050FDFFF786FF52
:1054600010B5FFF731FC4368046801334360002C3A
:105470000CD02023E35C472B0AD0002303602034A8
:10548000200046F081F8200033F038FDFFF76EFF72
:10549000263BE35C4E2BF0D12C3BE35C552BECD14F
:1054A000323BE35C432BE8D11F3BE35C432BE4D16D
:1054B0001E3BE35C2B2BE0D1053BE35C2B2BDCD1CB
:1054C000043BE35C012BD8D863695B426361D6E798
:1054D00010B50400024B03602CF09AFB200010BDB5
:1054E00070E0041010B50400044B03602CF090FB36
:1054F00020000C2133F0D2FB200010BD70E004101E
:10550000F0B583B01E00089B05000F001400934205
:105510000AD0A868089A036800921D6A2200330026
:105520003900A84703B0F0BD310000F05FF8002853
:10553000EFD00620F6E7C046F0B50E0085B01900A2
:10554000040017001D0000F051F8002814D10A9B38
:105550000C9A93422AD0A0680D9A036803920C9A81
:10556000310002920B9A01920A9A0092DC693A0089
:105570002B00A04705B0F0BD0D9B0A9A1F711A6061
:10558000002E0CDB93190C9AD31A5A1E9341042255
:105590005B4293430D9A063393710020EAE702368B
:1055A000FBD101230D9A00209371E3E720000B99B2
:1055B00000F01CF80028CED00D9B00205F71D9E7C9
:1055C000F8B507000C0015001E002CF059FB002850
:1055D00006D1B8682A00036821009F693300B847E4
:1055E000F8BDC0467047C0460020704710B58142E4
:1055F00011D0406803782A2B0BD049680B782A3BDE
:105600005A425341C9183BF039FC43425841C0B299
:1056100010BD0020FCE70120FAE7C04670B53D4B05
:1056200082B01A78002A44D101221A7033F0F0FCBB
:10563000002834D04468002123782A3B5A42534141
:10564000E41801235B4200220193200001AB33F0F8
:10565000B9FA314D06002B683022DB6801212F4852
:1056600038F0A0FA019B002B13D02B682000D968DA
:1056700038F086F82B680222DB680121284838F0D0
:1056800091FA019B002B02D13000FEF7E9FDFFF7F4
:10569000E7FE2B683000D96838F072F8EAE71E4B55
:1056A0002D221B6801211F48DB6838F07BFA35F09A
:1056B000EFFC194B1D221B680121DB681A4838F0EA
:1056C00071FA35F0E5FC0C00012919D133F016FC14
:1056D00003689B6898472B6806000B22210013483B
:1056E000DB6838F05FFA2B683000D96838F048F88A
:1056F0002B680A20D96837F0D3FF33F039FCD6E79E
:1057000033F0FCFB33F034FCD1E733F031FCFFF72E
:10571000F5F9C0460C3D0020D0190020F4BF04105C
:1057200028C004102CC00410D4BF04105CC00410A6
:10573000002303600371704710B50400006800285F
:1057400002D02379002B01D1200010BD36F0BEF924
:10575000FAE7C0467D231A40013A10B5040008005C
:105760007B2A07D8094B9200D158002902D0236820
:10577000002B01D0002010BD37F086FF20600028EC
:10578000F8D0012320002371F5E7C046ACE00410F7
:105790000068431E9841C0B27047C04610B500680B
:1057A00037F0ECFC10BD013101D133F029FBFFF7DC
:1057B000A5F9C04610B50400006800280BD0237975
:1057C000002B02D12360200006E036F07FF9002391
:1057D00023600028F7D0002010BDC046F8B50700B0
:1057E0000E001500386837F0C9FC2A0031003BF084
:1057F00041FC0400431C01D02000F8BD3BF02AFB13
:105800000368042BF8D1EDE7013101D133F0F8FA48
:10581000FFF774F9F8B517000D00FFF7BFFF3C0064
:10582000060002E0241A0ED02D18220029003000B4
:105830003BF02CFC431CF5D13BF00CFB0368042B24
:10584000F3D0381BF8BD3800FCE7C046F8B5D646A3
:105850004F4680B582460F0014001E00FFF79EFFE2
:105860008146002C17D0250002E02D1A13D03F18D6
:105870002A00390048463BF009FC431CF5D13BF0B7
:10588000E9FA0368042BF3D0601B844203D0C0BC48
:10589000BA46B146F8BD5046FFF780FF089D0700A5
:1058A00002E02D1A0FD036182A00310038003BF0E4
:1058B000EDFB431CF5D13BF0CDFA0368042BF3D08C
:1058C000089B5B1B0893089BE018E0E770B5140089
:1058D00080221D000023120612196B41002B08D1F3
:1058E000006837F04BFC2100049A3BF0B7FBC1176E
:1058F00070BD012040420100FAE7013102D133F0CE
:105900007FFAFAE7FFF7FAF830B597B00500FFF72E
:1059100045FF69463BF00AFB002809D1F022019BB4
:105920001202134080221202934203D017B030BDFE
:105930000020FBE72800FFF731FF01220021049C33
:105940003BF08CFB201AF1E7F0B5DE4657464546A2
:105950004E46E0B587B005AC82460D009346010087
:105960000122200016F06AF92378002B11D10421BE
:1059700053461B680C3B186850444369194316F0A2
:1059800097F8504607B0F0BCBB46B246A946A046C1
:10599000F0BD00232A686B60137053461B680C3BF4
:1059A0001B6853449B6F984642469B68D2681F0011
:1059B0001400934200D397E018780026834577D0EF
:1059C00008239C46AC4463460026039323E0220050
:1059D000594638003BF0B6FA002800D0C41B4A46AE
:1059E0006E4B9B1AA34200D2A3E02200390028008C
:1059F00021F028FD434642469B6836191B199360E7
:105A0000D268934234D2664918788E424BD8834587
:105A10004ED014001F00614BE41B9B1B9C4200DD19
:105A20001C006B689946012CD1DC4B46039A5F1C25
:105A30002B68C4B2934234D0AA68974227D84A460A
:105A40009C5400222B686F60DA55434642469B689F
:105A5000D2680136934239D2414601338B6093427A
:105A600006D218784D4B9E421DD043469B68CEE728
:105A700043461B6840465B6A9847494B9E4245D85F
:105A8000431C1FD0434642469B68D268BFE70123B0
:105A90000022009349460023280021F0F1FA2B68E8
:105AA000CDE70F22C9E7834500D060E743469B68F6
:105AB0000136934234D2424601339360002E00D126
:105AC00055E75EE7002E0DD1062151E743461B68DE
:105AD00040469B6A9847013004D0434642469B6843
